:1000000046C060C05FC05EC05DC05CC05BC05AC01F
:1000100059C058C057C045C155C054C053C052C044
:10002000F6C050C04FC04EC04DC04CC04BC04AC0BF
:1000300049C048C000000000240027002A0000003A
:100040000000250028002B00040404040404040418
:10005000020202020202030303030303020203017A
:10006000020408102040800102040810200102044C
:100070000810204080400000000900030200000436
:10008000050800000000000000000000000011242E
:100090001FBECFEFD2E0DEBFCDBF11E0A0E0B1E0E8
:1000A000EAEAFAE002C005900D92AE30B107D9F746
:1000B00021E0AEE0B1E001C01D92AC31B207E1F742
:1000C00065D1F1C49DCF90E0FC01EA58FF4F249127
:1000D000FC01E15AFF4F3491FC01E85BFF4FE491D2
:1000E000EE23C9F0222339F0243001F1A8F42230A4
:1000F00069F1233079F1F0E0EE0FFF1FE25CFF4F72
:10010000A591B4918FB7F894EC91611126C0309508
:100110003E233C938FBF0895283071F0293091F031
:10012000253049F7809180008F7D03C08091800049
:100130008F7780938000DFCF8091B0008F7780939E
:10014000B000D9CF8091B0008F7DF9CF84B58F7783
:1001500084BDD1CF84B58F7DFBCF3E2BDACF3FB7A7
:10016000F8948091180190911901A0911A01B09111
:100170001B0126B5A89B05C02F3F19F00196A11DB4
:10018000B11D3FBFBA2FA92F982F8827BC01CD01E1
:10019000620F711D811D911D42E0660F771F881F40
:1001A000991F4A95D1F708958F929F92AF92BF926F
:1001B000CF92DF92EF92FF92D2DF4B015C0184E697
:1001C000C82ED12CE12CF12CCADF681979098A09D3
:1001D0009B09683E734081059105B0F321E0C21A86
:1001E000D108E108F10888EE880E83E0981EA11C72
:1001F000B11CC114D104E104F10431F7FF90EF9078
:10020000DF90CF90BF90AF909F908F9008951F92F6
:100210000F920FB60F9211242F933F938F939F93BA
:10022000AF93BF938091140190911501A091160195
:10023000B09117013091130123E0230F2D3768F19E
:1002400026E8230F0296A11DB11D20931301809370
:10025000140190931501A0931601B093170180919A
:10026000180190911901A0911A01B0911B010196FA
:10027000A11DB11D8093180190931901A0931A013B
:10028000B0931B01BF91AF919F918F913F912F919F
:100290000F900FBE0F901F9018950196A11DB11DD4
:1002A000D4CF1F920F920FB60F9211248F929F926C
:1002B000AF92BF92EF92FF920F931F932F933F93B2
:1002C0004F935F936F937F938F939F93AF93BF935E
:1002D000CF93DF93EF93FF9380910E018F5F809315
:1002E0000E018E3F08F448C001E011E0D0E0C0E00C
:1002F000EE24E394F12CF80181918F01A7010C2EDB
:1003000002C0440F551F0A94E2F7052E000C660B3D
:10031000770B80900F0190901001A0901101B09088
:100320001201482159216A217B2191E0452B462B5E
:10033000472B09F490E0692FC6DE2196CC30D10519
:10034000D1F6FF91EF91DF91CF91BF91AF919F9146
:100350008F917F916F915F914F913F912F911F915D
:100360000F91FF90EF90BF90AF909F908F900F9064
:100370000FBE0F901F901895C1E0D1E060E0899109
:10038000A2DE81E0CD30D807C9F7DBCF789484B501
:10039000836084BD85B5836085BD80916E0081607A
:1003A00080936E0082E08093810080918100816063
:1003B0008093810080918000816080938000809193
:1003C000B10084608093B1008091B000816080931F
:1003D000B00087E880937A001092C10010920F015C
:1003E000109210011092110110921201A1E0B1E0DF
:1003F0002DE031E08D9190E0FC01E15AFF4F4491F6
:10040000885B9F4FFC018491882399F090E0880FCE
:10041000991FFC01EC5CFF4FC591D491FC01E25C9B
:10042000FF4F859194918FB7F894E881E42BE8838E
:100430008FBF2A173B07F1F610920001F894109233
:1004400080001092810010928500109284008FE944
:1004500090E090938900809388008091810088606B
:1004600080938100809181008160809381008091E0
:100470006F00826080936F007894C5E0D0E0CC2458
:10048000CA949FE0D92EE12CF12CC0920F01D0929A
:100490001001E0921101F092120186DE2197A9F776
:1004A000C5E0D0E010920F011092100110921101DE
:1004B0001092120179DE2197A9F7C1E0D0E000E0A7
:1004C00010E080E190E070E060E020910001F0E455
:1004D0002F9F9001112420937C0020917A002064AA
:1004E00020937A0020917A0026FDFCCF209178009D
:1004F00030917900620F731F019739F784E0769588
:1005000067958A95E1F790E080E0B8D120E030EC83
:100510004FE754E44BD120E030E040EA50E460D2B1
:100520002EED37EA48E35EE341D120E030E040E0E1
:100530005FE3D3D020E030E040E251E451D220E04C
:1005400030E040E85EE34CD26B017C012AE939E9F6
:1005500049E95EE327D187FD84C020E030E040E038
:100560005FE3C701B6011ED187FD7DC020E030E00A
:1005700040E85FE3C701B60115D187FD76C020E0F2
:1005800030E040EC5FE3C701B6010CD187FD6FC0DE
:1005900020E030E040E050E4C701B60103D187FD20
:1005A00068C020E030E040E450E4C701B601FAD072
:1005B00087FD61C020E030E040E850E4C701B601AB
:1005C000F1D087FD5AC020E030E040EA50E4C70196
:1005D000B601E8D087FD53C020E030E040EC50E4A5
:1005E000C701B601DFD087FD4CC020E030E040EE0F
:1005F00050E4C701B601D6D087FD45C020E030E009
:1006000040E051E4C701B601CDD087FD3EC020E0F7
:1006100030E040E151E4C701B601C4D087FF37C0E4
:100620008BE090E040910F01509110016091110119
:100630007091120130E020E08217930751F16E01B2
:10064000022E02C0CC0CDD1C0A94E2F70D2C000C2B
:10065000EE08FF084C295D296E297F292F5F3F4F47
:10066000EBCF80E0DECF81E0DCCF82E0DACF83E049
:10067000D8CF84E0D6CF85E0D4CF86E0D2CF87E054
:10068000D0CF88E0CECF89E0CCCF8AE0CACF8CE053
:10069000C8CF8C30910599F06E01082E02C0CC0CA9
:1006A000DD1C0A94E2F7C094D0940D2C000CEE08E7
:1006B000FF084C215D216E217F210196EACF4093F6
:1006C0000F015093100160931101709312010115F5
:1006D000110509F4F6CE94DCF4CE5058BB27AA27B6
:1006E0000ED044C135D130F03AD120F031F49F3FE3
:1006F00011F41EF42AC10EF4E095E7FB20C1E92FA6
:1007000046D180F3BA17620773078407950718F07C
:1007100071F49EF55EC10EF4E0950B2EBA2FA02D5C
:100720000B01B90190010C01CA01A0011124FF279E
:10073000591B99F0593F50F4503E68F11A16F04099
:10074000A22F232F342F4427585FF3CF4695379598
:100750002795A795F0405395C9F77EF41F16BA0B5D
:10076000620B730B840BBAF09150A1F0FF0FBB1F0B
:10077000661F771F881FC2F70EC0BA0F621F731F54
:10078000841F48F4879577956795B795F7959E3FB1
:1007900008F0B3CF9395880F08F09927EE0F97953F
:1007A00087950895A8D008F481E008950CD0DEC0A4
:1007B000D6D040F0CDD030F021F45F3F19F0BFC06B
:1007C000511108C1C2C0E3D098F39923C9F355234E
:1007D000B1F3951B550BBB27AA2762177307840734
:1007E00038F09F5F5F4F220F331F441FAA1FA9F3EA
:1007F00033D00E2E3AF0E0E830D091505040E695DC
:10080000001CCAF729D0FE2F27D0660F771F881F3C
:10081000BB1F261737074807AB07B0E809F0BB0B2B
:10082000802DBF01FF2793585F4F2AF09E3F51054F
:1008300068F085C0CFC05F3FECF3983EDCF386954F
:1008400077956795B795F7959F5FC9F7880F911DC5
:100850009695879597F90895E1E0660F771F881FB1
:10086000BB1F621773078407BA0720F0621B730B64
:10087000840BBA0BEE1F88F7E0950895E89409C041
:1008800097FB3EF490958095709561957F4F8F4FC3
:100890009F4F9923A9F0F92F96E9BB279395F695D9
:1008A000879577956795B795F111F8CFFAF4BB0F57
:1008B00011F460FF1BC06F5F7F4F8F4F9F4F16C0BB
:1008C000882311F096E911C0772321F09EE8872F45
:1008D000762F05C0662371F096E8862F70E060E001
:1008E0002AF09A95660F771F881FDAF7880F96957A
:1008F000879597F90895990F0008550FAA0BE0E81E
:10090000FEEF16161706E807F907C0F012161306D1
:10091000E407F50798F0621B730B840B950B39F411
:100920000A2661F0232B242B252B21F408950A2677
:1009300009F4A140A6958FEF811D811D089597F9B7
:100940009F6780E870E060E008959FEF80EC089575
:1009500000240A941616170618060906089500249E
:100960000A9412161306140605060895092E039418
:10097000000C11F4882352F0BB0F40F4BF2B11F48C
:1009800060FF04C06F5F7F4F8F4F9F4F089557FDEB
:100990009058440F551F59F05F3F71F04795880FED
:1009A00097FB991F61F09F3F79F087950895121684
:1009B00013061406551FF2CF4695F1DF08C0161630
:1009C00017061806991FF1CF8695710561050894E1
:1009D0000895E894BB2766277727CB0197F90895F8
:1009E0000BD0C4CFB5DF28F0BADF18F0952309F09B
:1009F000A6CFABCF1124EECFCADFA0F3959FD1F3E2
:100A0000950F50E0551F629FF001729FBB27F00DBC
:100A1000B11D639FAA27F00DB11DAA1F649F662711
:100A2000B00DA11D661F829F2227B00DA11D621F60
:100A3000739FB00DA11D621F839FA00D611D221F1A
:100A4000749F3327A00D611D231F849F600D211DFE
:100A5000822F762F6A2F11249F5750408AF0E1F0A1
:100A600088234AF0EE0FFF1FBB1F661F771F881FEA
:100A700091505040A9F79E3F510570F060CFAACF2A
:100A80005F3FECF3983EDCF3869577956795B795D5
:100A9000F795E7959F5FC1F7FE2B880F911D9695FF
:0A0AA000879597F90895F894FFCFA9
:0E0AAA00010302010004060708090A0B0C00F4
:00000001FF
