:1000000046C060C05FC05EC05DC05CC05BC05AC01F
:1000100059C058C057C0A5C055C054C053C052C0E5
:10002000CFC150C04FC04EC04DC04CC04BC04AC0E5
:1000300049C048C000000009000302000004050890
:100040000000000000000000000000010204081091
:100050002040800102040810200102040810204002
:1000600080400404040404040404020202020202A4
:10007000030303030303020203000000002500281A
:10008000002B0000000000240027002A000011249B
:100090001FBECFEFD2E0DEBFCDBF11E0A0E0B1E0E8
:1000A000E8E0FBE002C005900D92AE30B107D9F751
:1000B00021E0AEE0B1E001C01D92AC31B207E1F742
:1000C00000D320C59DCFCF92DF92EF92FF92BC016B
:1000D00090E080E0FED320E030EC4FE754E465D3BD
:1000E00020E030E040EA50E4AAD42EED37EA48E3BD
:1000F0005EE35BD36B017C0120E030E048E151E43A
:1001000050D387FD27C020E030E048E751E4C70125
:10011000B60191D4181634F4C12CD12C98E7E92EED
:1001200091E4F92E20E030E048E151E4C701B60146
:10013000D3D220E030E040EC50E437D320E030E090
:1001400040E451E47CD499D3862FFF90EF90DF9068
:10015000CF900895C12CD12C88E1E82E81E4F82EAF
:10016000E1CF1F920F920FB60F9211248F929F92A0
:10017000AF92BF92EF92FF920F931F932F933F93F3
:100180004F935F936F937F938F939F93AF93BF939F
:10019000CF93DF93EF93FF93809112018F5F809352
:1001A00012018E3F08F448C001E011E0D0E0C0E049
:1001B000EE24E394F12CF80181918F01A7010C2E1C
:1001C00002C0440F551F0A94E2F7052E000C660B7F
:1001D000770B80900E0190900F01A0901001B090CD
:1001E0001101482159216A217B2191E0452B462BA1
:1001F000472B09F490E0692F36D22196CC30D105F7
:10020000D1F6FF91EF91DF91CF91BF91AF919F9187
:100210008F917F916F915F914F913F912F911F919E
:100220000F91FF90EF90BF90AF909F908F900F90A5
:100230000FBE0F901F901895C1E0D1E060E089914A
:1002400012D281E0CD30D807C9F7DBCFCF93DF934F
:1002500010920E0110920F011092100110921101D4
:10026000C1E0D1E061E08991C2D181E0CD30D80711
:10027000C9F780E072D1F89410928000109281004A
:1002800010928500109284008FE990E0909389008D
:1002900080938800809181008860809381008091A4
:1002A000810081608093810080916F0082608093E3
:1002B0006F0078948FEF9FE0A0E0B0E080930E0194
:1002C00090930F01A0931001B093110164E670E0C8
:1002D00080E090E0E4D010920E0110920F01109295
:1002E00010011092110164E670E080E090E0DF916F
:1002F000CF91D5C0CF92DF92EF92FF92CF93DF9351
:10030000C0E1D0E0F12CE12C8EE02AD1E80EF91EFC
:100310002197D1F7C70124E0969587952A95E1F7B3
:10032000D2DE90E08D30910514F08CE090E04091A9
:100330000E0150910F01609110017091110130E098
:1003400020E0E1E0F0E028173907C9F4E1E0F0E04F
:100350002C30310531F1CF01022E02C0880F991FD8
:100360000A94E2F780959095092E000CAA0BBB0B1E
:10037000482359236A237B232F5F3F4FE9CF6F0127
:10038000022E02C0CC0CDD1C0A94E2F70D2C000CEE
:10039000EE08FF084C295D296E297F292F5F3F4F0A
:1003A000D2CF40930E0150930F01609310017093D0
:1003B0001101DF91CF91FF90EF90DF90CF900895E2
:1003C0001F920F920FB60F9211242F933F938F938A
:1003D0009F93AF93BF938091180190911901A091C1
:1003E0001A01B0911B013091170123E0230F2D3723
:1003F00068F126E8230F0296A11DB11D2093170175
:100400008093180190931901A0931A01B0931B01D6
:100410008091130190911401A0911501B0911601E2
:100420000196A11DB11D8093130190931401A09317
:100430001501B0931601BF91AF919F918F913F919C
:100440002F910F900FBE0F901F9018950196A11D30
:10045000B11DD4CF3FB7F89480911301909114014E
:10046000A0911501B091160126B5A89B05C02F3F9C
:1004700019F00196A11DB11D3FBFBA2FA92F982FCA
:100480008827BC01CD01620F711D811D911D42E0C5
:10049000660F771F881F991F4A95D1F708958F928D
:1004A0009F92AF92BF92CF92DF92EF92FF926B0139
:1004B0007C01D0DF4B015C01C114D104E104F104E3
:1004C000D9F009D1C7DF681979098A099B09683E03
:1004D00073408105910580F321E0C21AD108E1083B
:1004E000F10888EE880E83E0981EA11CB11CC1148F
:1004F000D104E104F10431F7FF90EF90DF90CF9049
:10050000BF90AF909F908F900895789484B583604A
:1005100084BD85B5836085BDEEE6F0E080818160B5
:100520008083E1E8F0E082E08083808181608083E5
:10053000E0E8F0E0808181608083E1EBF0E08081A1
:1005400084608083E0EBF0E080818160808387E8D5
:1005500080937A001092C10008958093000108955D
:10056000883020F08D3008F48DE08E50209100010D
:1005700090E4299F900111248770822B80937C0046
:1005800080917A00806480937A0080917A0086FD61
:10059000FCCF80917800909179000895843081F0AB
:1005A00028F48230E9F08330F9F00895883071F052
:1005B000893091F08530B9F4809180008F7D03C03F
:1005C000809180008F778093800008958091B000A3
:1005D0008F778093B00008958091B0008F7DF9CF20
:1005E00084B58F7784BD089584B58F7DFBCFCF937D
:1005F000DF9390E0FC01E55BFF4F24918E599F4F04
:10060000FC0184918823C9F090E0880F991FFC01B8
:10061000ED57FF4FA591B491FC01E758FF4FC591ED
:10062000D49161110DC09FB7F8948C9120958223CD
:100630008C938881282328839FBFDF91CF910895D1
:10064000623051F49FB7F8943C91822F80958323B8
:100650008C93E8812E2BEFCF8FB7F894EC912E2B53
:100660002C938FBFEACF1F93CF93DF93282F30E0D7
:10067000F901EC5CFF4F8491F901E55BFF4FD491E8
:10068000F901EE59FF4FC491CC23A1F0162F81112F
:1006900085DFEC2FF0E0EE0FFF1FE758FF4FA5912D
:1006A000B4918FB7F894EC91111108C0D095DE2366
:1006B000DC938FBFDF91CF911F910895DE2BF8CF90
:1006C000089523DFFDDFC2DDC0E0D0E013DE209718
:1006D000E9F396DCFBCF08955058BB27AA270ED02C
:1006E00070C161D130F066D120F031F49F3F11F438
:1006F0001EF456C10EF4E095E7FB4CC1E92F72D110
:1007000080F3BA17620773078407950718F071F42E
:100710009EF58AC10EF4E0950B2EBA2FA02D0B0189
:10072000B90190010C01CA01A0011124FF27591B36
:1007300099F0593F50F4503E68F11A16F040A22F3C
:10074000232F342F4427585FF3CF469537952795AD
:10075000A795F0405395C9F77EF41F16BA0B620BAC
:10076000730B840BBAF09150A1F0FF0FBB1F661FF3
:10077000771F881FC2F70EC0BA0F621F731F841F36
:1007800048F4879577956795B795F7959E3F08F05C
:10079000B3CF9395880F08F09927EE0F979587951B
:1007A0000895D4D008F481E008950CD00AC102D194
:1007B00040F0F9D030F021F45F3F19F0EBC0511157
:1007C00034C1EEC00FD198F39923C9F35523B1F387
:1007D000951B550BBB27AA2762177307840738F0B0
:1007E0009F5F5F4F220F331F441FAA1FA9F333D00F
:1007F0000E2E3AF0E0E830D091505040E695001CC3
:10080000CAF729D0FE2F27D0660F771F881FBB1F7E
:10081000261737074807AB07B0E809F0BB0B802D58
:10082000BF01FF2793585F4F2AF09E3F510568F0A4
:10083000B1C0FBC05F3FECF3983EDCF38695779543
:100840006795B795F7959F5FC9F7880F911D9695A6
:10085000879597F90895E1E0660F771F881FBB1F02
:10086000621773078407BA0720F0621B730B840BAF
:10087000BA0BEE1F88F7E0950895BCD088F09F571B
:1008800090F0B92F9927B751A0F0D1F0660F771FDC
:10089000881F991F1AF0BA95C9F712C0B13081F0BC
:1008A000C3D0B1E00895C0C0672F782F8827B85F04
:1008B00039F0B93FCCF3869577956795B395D9F71D
:1008C0003EF490958095709561957F4F8F4F9F4F27
:1008D0000895E89409C097FB3EF490958095709533
:1008E00061957F4F8F4F9F4F9923A9F0F92F96E97C
:1008F000BB279395F695879577956795B795F111F1
:10090000F8CFFAF4BB0F11F460FF1BC06F5F7F4F8D
:100910008F4F9F4F16C0882311F096E911C077239F
:1009200021F09EE8872F762F05C0662371F096E8A8
:10093000862F70E060E02AF09A95660F771F881F77
:10094000DAF7880F9695879597F90895990F00081B
:10095000550FAA0BE0E8FEEF16161706E807F90791
:10096000C0F012161306E407F50798F0621B730B2C
:10097000840B950B39F40A2661F0232B242B252BAD
:1009800021F408950A2609F4A140A6958FEF811D50
:10099000811D089597F99F6780E870E060E00895F1
:1009A0009FEF80EC089500240A9416161706180687
:1009B0000906089500240A94121613061406050663
:1009C0000895092E0394000C11F4882352F0BB0FF4
:1009D00040F4BF2B11F460FF04C06F5F7F4F8F4F57
:1009E0009F4F089557FD9058440F551F59F05F3F92
:1009F00071F04795880F97FB991F61F09F3F79F041
:100A000087950895121613061406551FF2CF4695C2
:100A1000F1DF08C0161617061806991FF1CF869544
:100A20007105610508940895E894BB276627772728
:100A3000CB0197F908958ADF08F48FEF08950BD062
:100A4000C0CFB1DF28F0B6DF18F0952309F0A2CFB0
:100A5000A7CF1124EACFC6DFA0F3959FD1F3950F5E
:100A600050E0551F629FF001729FBB27F00DB11D32
:100A7000639FAA27F00DB11DAA1F649F6627B00DC2
:100A8000A11D661F829F2227B00DA11D621F739FAB
:100A9000B00DA11D621F839FA00D611D221F749FB9
:100AA0003327A00D611D231F849F600D211D822F00
:100AB000762F6A2F11249F5750408AF0E1F0882347
:100AC0004AF0EE0FFF1FBB1F661F771F881F915054
:100AD0005040A9F79E3F510570F05CCFA6CF5F3F15
:100AE000ECF3983EDCF3869577956795B795F79587
:100AF000E7959F5FC1F7FE2B880F911D969587950F
:080B000097F90895F894FFCF66
:0E0B0800010308010004060702090A0B0C0095
:00000001FF
