:1000000073C08DC08CC08BC08AC089C088C087C0B7
:1000100086C085C084C072C182C081C080C07FC0DC
:1000200023C17DC07CC07BC07AC079C078C077C056
:1000300076C075C008000000BE922449123EABAAEB
:10004000AA2ABECDCCCC4C3E00000080BEABAAAAF2
:10005000AA3E00000000BF000000803F000000003A
:1000600000084178D3BB4387D1133D190E3CC3BD73
:100070004282AD2B3E68EC8276BED98FE1A93E4C20
:1000800080EFFFBE01C4FF7F3F00000000000000C2
:100090000000240027002A0000000000250028009E
:1000A0002B000404040404040404020202020202F9
:1000B00003030303030302020301020408102040A8
:1000C0008001020408102001020408102040804032
:1000D0000000000900030200000405080000000001
:1000E000000000000000000011241FBECFEFD2E08E
:1000F000DEBFCDBF11E0A0E0B1E0E6E8FCE002C069
:1001000005900D92AE30B107D9F721E0AEE0B1E035
:1001100001C01D92A132B207E1F765D1B2C570CF1F
:1001200090E0FC01E053FF4F2491FC01E754FF4FA6
:100130003491FC01EE55FF4FE491EE23C9F02223E8
:1001400039F0243001F1A8F4223069F1233079F13B
:10015000F0E0EE0FFF1FE856FF4FA591B4918FB767
:10016000F894EC91611126C030953E233C938FBFEB
:100170000895283071F0293091F0253049F78091A9
:1001800080008F7D03C0809180008F7780938000F6
:10019000DFCF8091B0008F778093B000D9CF80916E
:1001A000B0008F7DF9CF84B58F7784BDD1CF84B572
:1001B0008F7DFBCF3E2BDACF3FB7F89480911D01A6
:1001C00090911E01A0911F01B091200126B5A89B1E
:1001D00005C02F3F19F00196A11DB11D3FBFBA2FD9
:1001E000A92F982F8827BC01CD01620F711D811D99
:1001F000911D42E0660F771F881F991F4A95D1F71E
:1002000008958F929F92AF92BF92CF92DF92EF921A
:10021000FF92D2DF4B015C0184E6C82ED12CE12C89
:10022000F12CCADF681979098A099B09683E734075
:1002300081059105B0F321E0C21AD108E108F10867
:1002400088EE880E83E0981EA11CB11CC114D10455
:10025000E104F10431F7FF90EF90DF90CF90BF9071
:10026000AF909F908F9008951F920F920FB60F92AC
:1002700011242F933F938F939F93AF93BF938091BC
:10028000190190911A01A0911B01B0911C013091AC
:10029000180123E0230F2D3768F126E8230F02967B
:1002A000A11DB11D209318018093190190931A018B
:1002B000A0931B01B0931C0180911D0190911E0120
:1002C000A0911F01B09120010196A11DB11D809345
:1002D0001D0190931E01A0931F01B0932001BF91B7
:1002E000AF919F918F913F912F910F900FBE0F90E3
:1002F0001F9018950196A11DB11DD4CF1F920F928A
:100300000FB60F9211248F929F92AF92BF92EF92ED
:10031000FF920F931F932F933F934F935F936F938E
:100320007F938F939F93AF93BF93CF93DF93EF937D
:10033000FF9380910E018F5F80930E018E3F08F432
:1003400048C001E011E0D0E0C0E0EE24E394F12CDD
:10035000F80181918F01A7010C2E02C0440F551F97
:100360000A94E2F7052E000C660B770B80901401BF
:1003700090901501A0901601B090170148215921C5
:100380006A217B2191E0452B462B472B09F490E015
:10039000692FC6DE2196CC30D105D1F6FF91EF91C1
:1003A000DF91CF91BF91AF919F918F917F916F918D
:1003B0005F914F913F912F911F910F91FF90EF907F
:1003C000BF90AF909F908F900F900FBE0F901F9097
:1003D0001895C1E0D1E060E08991A2DE81E0CD30E6
:1003E000D807C9F7DBCF789484B5836084BD85B521
:1003F000836085BD80916E00816080936E0082E095
:100400008093810080918100816080938100809140
:1004100080008160809380008091B100846080932F
:10042000B1008091B00081608093B00087E8809334
:100430007A001092C10010921401109215011092CE
:10044000160110921701A1E0B1E02DE031E08D918D
:1004500090E0FC01E754FF4F44918E559F4FFC0103
:100460008491882399F090E0880F991FFC01E2574E
:10047000FF4FC591D491FC01E856FF4F85919491AF
:100480008FB7F894E881E42BE8838FBF2A173B07E6
:10049000F1F610920001F894109280001092810001
:1004A00010928500109284008FE990E0909389006B
:1004B0008093880080918100886080938100809182
:1004C000810081608093810080916F0082608093C1
:1004D0006F007894C5E0D0E0CC24CA944FE0D42ECD
:1004E000E12CF12CC0921401D0921501E09216017A
:1004F000F092170186DE2197A9F7C5E0D0E01092AF
:10050000140110921501109216011092170179DE54
:100510002197A9F7C1E0D0E000E010E0812C912CF8
:100520003AE2A32E33ECB32E80910001F0E48F9FCA
:10053000C001112480937C0080917A0080648093B4
:100540007A0080917A0086FDFCCF609178007091EE
:100550007900072E000C880B990B04D26B017C01EB
:1005600020E030E04FE754E463D187FF89C020E00A
:1005700030E04CE553E4C701B601EDD22B013C015C
:10058000A701960160E070EC8FE794E4ECD09B014A
:10059000AC01C301B20150D16B017C0120E030E01D
:1005A00040E85FE345D187FF06C0C12CD12C20E88D
:1005B000E22E2FE3F22E20E030E04AE754E4C701B8
:1005C000B6013AD188D220E030E04AE755E434D190
:1005D000C0901001D0901101E0901201F090130131
:1005E0002FE03FEC4BE55BE3BFD09B01AC0160E04B
:1005F00070E080E89FE320D123E333E948E853E447
:10060000B2D0A7019601AFD02DEC3CEC4CE45EE3F8
:10061000A2D2A7019601A8D0609310017093110196
:100620008093120190931301C0901001D09011019A
:10063000E0901201F090130120E030E04AE253EC28
:10064000C701B6013FD218160CF05FC020E030E0C1
:1006500040E252E4C701B601EBD087FD1AC020E0AA
:1006600030E841E153E4C701B6012CD21816BCF4BE
:10067000C12C80E8D82E81E1E82E83E4F82E0FC04B
:100680008092100190921101A0921201B092130178
:10069000CBCFC12CD12C90E2E92E92E4F92E20E0B0
:1006A00030E040E252E4C701B6015DD020E030E026
:1006B00043ED52E4C1D020E030E040E451E44BD2BD
:1006C00023D170E06D30710514F06CE070E0C090E3
:1006D0001401D0901501E0901601F090170190E000
:1006E00080E068177907D9F02E01082E02C0440C6B
:1006F000551C0A94E2F7052C000C66087708C428FC
:10070000D528E628F7280196ECCF80910F018F5F5E
:1007100080930F016CE084FDD4CF60E0D2CF8C30A9
:10072000910599F0AE01082E02C0440F551F0A949E
:10073000E2F740955095052E000C660B770BC4220E
:10074000D522E622F7220196EACFC0921401D09278
:100750001501E0921601F09217010115110509F437
:10076000E3CE4EDCE1CE5058BB27AA270ED070C195
:1007700061D130F066D120F031F49F3F11F41EF4C6
:1007800056C10EF4E095E7FB4CC1E92F72D180F31E
:10079000BA17620773078407950718F071F49EF57E
:1007A0008AC10EF4E0950B2EBA2FA02D0B01B901D2
:1007B00090010C01CA01A0011124FF27591B99F0D7
:1007C000593F50F4503E68F11A16F040A22F232FE3
:1007D000342F4427585FF3CF469537952795A79533
:1007E000F0405395C9F77EF41F16BA0B620B730BDA
:1007F000840BBAF09150A1F0FF0FBB1F661F771F4B
:10080000881FC2F70EC0BA0F621F731F841F48F4FF
:10081000879577956795B795F7959E3F08F0B3CF85
:100820009395880F08F09927EE0F9795879508956F
:10083000D4D008F481E008950CD00AC102D140F070
:10084000F9D030F021F45F3F19F0EBC0511134C101
:10085000EEC00FD198F39923C9F35523B1F3951B3B
:10086000550BBB27AA2762177307840738F09F5FD1
:100870005F4F220F331F441FAA1FA9F333D00E2E40
:100880003AF0E0E830D091505040E695001CCAF7AD
:1008900029D0FE2F27D0660F771F881FBB1F261772
:1008A00037074807AB07B0E809F0BB0B802DBF0145
:1008B000FF2793585F4F2AF09E3F510568F0B1C063
:1008C000FBC05F3FECF3983EDCF386957795679528
:1008D000B795F7959F5FC9F7880F911D96958795F6
:1008E00097F90895E1E0660F771F881FBB1F621715
:1008F00073078407BA0720F0621B730B840BBA0BD3
:10090000EE1F88F7E0950895BCD088F09F5790F0CF
:10091000B92F9927B751A0F0D1F0660F771F881F24
:10092000991F1AF0BA95C9F712C0B13081F0C3D03F
:10093000B1E00895C0C0672F782F8827B85F39F0DD
:10094000B93FCCF3869577956795B395D9F73EF483
:1009500090958095709561957F4F8F4F9F4F08952B
:10096000E89409C097FB3EF4909580957095619549
:100970007F4F8F4F9F4F9923A9F0F92F96E9BB27FF
:100980009395F695879577956795B795F111F8CF7B
:10099000FAF4BB0F11F460FF1BC06F5F7F4F8F4FE6
:1009A0009F4F16C0882311F096E911C0772321F0DC
:1009B0009EE8872F762F05C0662371F096E8862F74
:1009C00070E060E02AF09A95660F771F881FDAF7CB
:1009D000880F9695879597F90895990F0008550FF8
:1009E000AA0BE0E8FEEF16161706E807F907C0F0B5
:1009F00012161306E407F50798F0621B730B840BBD
:100A0000950B39F40A2661F0232B242B252B21F496
:100A100008950A2609F4A140A6958FEF811D811D36
:100A2000089597F99F6780E870E060E008959FEF70
:100A300080EC089500240A94161617061806090675
:100A4000089500240A941216130614060506089544
:100A5000092E0394000C11F4882352F0BB0F40F4CC
:100A6000BF2B11F460FF04C06F5F7F4F8F4F9F4F0C
:100A7000089557FD9058440F551F59F05F3F71F08E
:100A80004795880F97FB991F61F09F3F79F08795F5
:100A90000895121613061406551FF2CF4695F1DF7E
:100AA00008C0161617061806991FF1CF869571050E
:100AB000610508940895E894BB2766277727CB0142
:100AC00097F908958ADF08F48FEF08950EF0A6C015
:100AD000AECF6894A6CFD5DFC8F39923D1F3C6F380
:100AE000DF93CF931F930F93FF92C92FDD278823A6
:100AF0002AF02197660F771F881FDAF720E030E091
:100B000040E85FEB9FE3883920F0803E30F021968B
:100B10008F772ADEE4E3F0E003C026DEE1E6F0E0D2
:100B20008BD08B01BE01EC01FB2E6F5771097595BF
:100B3000771F880B990B16DF28E132E741E35FE36B
:100B400016D0AF2D9801AE01FF900F911F91CF915C
:100B5000DF911BDE7DCF0BD07BCF6CDF28F071DF08
:100B600018F0952309F05DCF62CF1124A5CF81DF66
:100B7000A0F3959FD1F3950F50E0551F629FF001B0
:100B8000729FBB27F00DB11D639FAA27F00DB11D09
:100B9000AA1F649F6627B00DA11D661F829F222792
:100BA000B00DA11D621F739FB00DA11D621F839F19
:100BB000A00D611D221F749F3327A00D611D231FEF
:100BC000849F600D211D822F762F6A2F11249F573D
:100BD00050408AF0E1F088234AF0EE0FFF1FBB1F60
:100BE000661F771F881F91505040A9F79E3F5105FF
:100BF00070F017CF61CF5F3FECF3983EDCF3869542
:100C000077956795B795F795E7959F5FC1F7FE2BA9
:100C1000880F911D9695879597F908959F3F31F01C
:100C2000915020F4879577956795B795880F911D1A
:100C30009695879597F90895DF93CF931F930F9318
:100C4000FF92EF92DF927B018C01689405C0DA2E4F
:100C5000EF018DDFFE01E894A59125913591459135
:100C60005591AEF3EF0191DDFE019701A801DA94F1
:100C700079F7DF90EF90FF900F911F91CF91DF9167
:060C80000895F894FFCF77
:0E0C8600010302010004060708090A0B0C0016
:00000001FF
