:1000000046C060C05FC05EC05DC05CC05BC05AC01F
:1000100059C058C057C057C055C054C053C052C033
:100020007EC150C04FC04EC04DC04CC04BC04AC036
:1000300049C048C000000009000302000004050890
:100040000000000000000000000000010204081091
:100050002040800102040810200102040810204002
:1000600080400404040404040404020202020202A4
:10007000030303030303020203000000002500281A
:10008000002B0000000000240027002A000011249B
:100090001FBECFEFD2E0DEBFCDBF11E0A0E0B1E0E8
:1000A000EEEFF5E002C005900D92AE30B107D9F742
:1000B00021E0AEE0B1E001C01D92AC31B207E1F742
:1000C00091D29BC29DCF1F920F920FB60F92112417
:1000D0008F929F92AF92BF92EF92FF920F931F93D6
:1000E0002F933F934F935F936F937F938F939F9340
:1000F000AF93BF93CF93DF93EF93FF938091120160
:100100008F5F809312018E3F08F448C001E011E038
:10011000D0E0C0E0EE24E394F12CF80181918F014E
:10012000A7010C2E02C0440F551F0A94E2F7052EBA
:10013000000C660B770B80900E0190900F01A09041
:100140001001B0901101482159216A217B2191E0D1
:10015000452B462B472B09F490E0692F15D22196A9
:10016000CC30D105D1F6FF91EF91DF91CF91BF91C6
:10017000AF919F918F917F916F915F914F913F913F
:100180002F911F910F91FF90EF90BF90AF909F9094
:100190008F900F900FBE0F901F901895C1E0D1E087
:1001A00060E08991F1D181E0CD30D807C9F7DBCF8C
:1001B000CF93DF9310920E0110920F011092100155
:1001C00010921101C1E0D1E061E08991A1D181E0FB
:1001D000CD30D807C9F780E06FD1F8941092800035
:1001E0001092810010928500109284008FE990E0B7
:1001F000909389008093880080918100886080932B
:1002000081008091810081608093810080916F00E6
:10021000826080936F0078948FEF9FE0A0E0B0E061
:1002200080930E0190930F01A0931001B0931101E0
:1002300064E670E080E090E0E1D010920E01109250
:100240000F01109210011092110164E670E080E03D
:1002500090E0DF91CF91D2C00F931F93CF93DF93A4
:10026000D0E0C0E001E010E0C8010C2E02C0880F11
:10027000991F0A94E2F7092E000CAA0BBB0B4091C0
:100280000E0150910F016091100170911101842BAA
:10029000952BA62BB72B80930E0190930F01A09363
:1002A0001001B09311016CE271E080E090E0A6D003
:1002B0002196CC30D105C1F6D0E0C0E001E010E0DD
:1002C000C8010C2E02C0880F991F0A94E2F780958E
:1002D0009095092E000CAA0BBB0B40910E0150917A
:1002E0000F01609110017091110184239523A623C1
:1002F000B72380930E0190930F01A0931001B09348
:1003000011016CE271E080E090E078D02196CC3071
:10031000D105B1F6DF91CF911F910F9108951F92F2
:100320000F920FB60F9211242F933F938F939F93A9
:10033000AF93BF938091180190911901A0911A0178
:10034000B0911B013091170123E0230F2D3768F185
:1003500026E8230F0296A11DB11D2093170180935B
:10036000180190931901A0931A01B0931B01809179
:10037000130190911401A0911501B09116010196FD
:10038000A11DB11D8093130190931401A093150139
:10039000B0931601BF91AF919F918F913F912F9193
:1003A0000F900FBE0F901F9018950196A11DB11DC3
:1003B000D4CF3FB7F8948091130190911401A0918C
:1003C0001501B091160126B5A89B05C02F3F19F065
:1003D0000196A11DB11D3FBFBA2FA92F982F8827C5
:1003E000BC01CD01620F711D811D911D42E0660FA0
:1003F000771F881F991F4A95D1F708958F929F9272
:10040000AF92BF92CF92DF92EF92FF926B017C018D
:10041000D0DF4B015C01C114D104E104F104D9F037
:10042000EBD0C7DF681979098A099B09683E7340D8
:100430008105910580F321E0C21AD108E108F10895
:1004400088EE880E83E0981EA11CB11CC114D10453
:10045000E104F10431F7FF90EF90DF90CF90BF906F
:10046000AF909F908F900895789484B5836084BDF9
:1004700085B5836085BDEEE6F0E080818160808394
:10048000E1E8F0E082E08083808181608083E0E8C1
:10049000F0E0808181608083E1EBF0E08081846026
:1004A0008083E0EBF0E080818160808387E8809347
:1004B0007A001092C100089580930001089584305D
:1004C00081F028F48230E9F08330F9F00895883023
:1004D00071F0893091F08530B9F4809180008F7D82
:1004E00003C0809180008F77809380000895809171
:1004F000B0008F778093B00008958091B0008F7D19
:10050000F9CF84B58F7784BD089584B58F7DFBCFF7
:10051000CF93DF9390E0FC01E55BFF4F24918E5970
:100520009F4FFC0184918823C9F090E0880F991FA8
:10053000FC01ED57FF4FA591B491FC01E758FF4F27
:10054000C591D49161110DC09FB7F8948C912095FD
:1005500082238C938881282328839FBFDF91CF91AA
:100560000895623051F49FB7F8943C91822F8095A2
:1005700083238C93E8812E2BEFCF8FB7F894EC91E7
:100580002E2B2C938FBFEACF1F93CF93DF93282F6F
:1005900030E0F901EC5CFF4F8491F901E55BFF4F1E
:1005A000D491F901EE59FF4FC491CC23A1F0162F3D
:1005B000811185DFEC2FF0E0EE0FFF1FE758FF4FB2
:1005C000A591B4918FB7F894EC91111108C0D09512
:1005D000DE23DC938FBFDF91CF911F910895DE2B37
:1005E000F8CF089541DFFDDFE3DDC0E0D0E034DE89
:0E05F0002097E9F305DDFBCF0895F894FFCFC7
:0E05FE00010308010004060702090A0B0C00A5
:00000001FF
